{
  "contractName": "SimpleStorage",
  "abi": [
    {
      "inputs": [
        {
          "internalType": "uint256",
          "name": "",
          "type": "uint256"
        }
      ],
      "name": "fundArray",
      "outputs": [
        {
          "internalType": "string",
          "name": "name",
          "type": "string"
        },
        {
          "internalType": "string",
          "name": "amount",
          "type": "string"
        },
        {
          "internalType": "string",
          "name": "message",
          "type": "string"
        },
        {
          "internalType": "string",
          "name": "date",
          "type": "string"
        },
        {
          "internalType": "string",
          "name": "mode_of_payment",
          "type": "string"
        },
        {
          "internalType": "string",
          "name": "userId",
          "type": "string"
        },
        {
          "internalType": "uint256",
          "name": "transactionId",
          "type": "uint256"
        }
      ],
      "stateMutability": "view",
      "type": "function",
      "constant": true
    },
    {
      "inputs": [
        {
          "internalType": "string",
          "name": "name",
          "type": "string"
        },
        {
          "internalType": "string",
          "name": "amount",
          "type": "string"
        },
        {
          "internalType": "string",
          "name": "mode_of_payment",
          "type": "string"
        },
        {
          "internalType": "string",
          "name": "date",
          "type": "string"
        },
        {
          "internalType": "string",
          "name": "message",
          "type": "string"
        },
        {
          "internalType": "string",
          "name": "userId",
          "type": "string"
        }
      ],
      "name": "registerFunds",
      "outputs": [],
      "stateMutability": "nonpayable",
      "type": "function"
    },
    {
      "inputs": [
        {
          "internalType": "string",
          "name": "userId",
          "type": "string"
        }
      ],
      "name": "getMyFunds",
      "outputs": [
        {
          "components": [
            {
              "internalType": "string",
              "name": "name",
              "type": "string"
            },
            {
              "internalType": "string",
              "name": "amount",
              "type": "string"
            },
            {
              "internalType": "string",
              "name": "message",
              "type": "string"
            },
            {
              "internalType": "string",
              "name": "date",
              "type": "string"
            },
            {
              "internalType": "string",
              "name": "mode_of_payment",
              "type": "string"
            },
            {
              "internalType": "string",
              "name": "userId",
              "type": "string"
            },
            {
              "internalType": "uint256",
              "name": "transactionId",
              "type": "uint256"
            }
          ],
          "internalType": "struct SimpleStorage.Funds[]",
          "name": "",
          "type": "tuple[]"
        }
      ],
      "stateMutability": "nonpayable",
      "type": "function"
    },
    {
      "inputs": [],
      "name": "getAll",
      "outputs": [
        {
          "components": [
            {
              "internalType": "string",
              "name": "name",
              "type": "string"
            },
            {
              "internalType": "string",
              "name": "amount",
              "type": "string"
            },
            {
              "internalType": "string",
              "name": "message",
              "type": "string"
            },
            {
              "internalType": "string",
              "name": "date",
              "type": "string"
            },
            {
              "internalType": "string",
              "name": "mode_of_payment",
              "type": "string"
            },
            {
              "internalType": "string",
              "name": "userId",
              "type": "string"
            },
            {
              "internalType": "uint256",
              "name": "transactionId",
              "type": "uint256"
            }
          ],
          "internalType": "struct SimpleStorage.Funds[]",
          "name": "",
          "type": "tuple[]"
        }
      ],
      "stateMutability": "view",
      "type": "function",
      "constant": true
    }
  ],
  "bytecode": "0x608060405234801561001057600080fd5b50611ae1806100206000396000f3fe608060405234801561001057600080fd5b506004361061004c5760003560e01c8063097dc4181461005157806353ed51431461008757806386896fc0146100a5578063f44a82db146100d5575b600080fd5b61006b60048036038101906100669190610f28565b6100f1565b60405161007e9796959493929190610ff4565b60405180910390f35b61008f610473565b60405161009c9190611267565b60405180910390f35b6100bf60048036038101906100ba91906113be565b610848565b6040516100cc9190611267565b60405180910390f35b6100ef60048036038101906100ea9190611407565b610d92565b005b6001818154811061010157600080fd5b90600052602060002090600702016000915090508060000180546101249061156b565b80601f01602080910402602001604051908101604052809291908181526020018280546101509061156b565b801561019d5780601f106101725761010080835404028352916020019161019d565b820191906000526020600020905b81548152906001019060200180831161018057829003601f168201915b5050505050908060010180546101b29061156b565b80601f01602080910402602001604051908101604052809291908181526020018280546101de9061156b565b801561022b5780601f106102005761010080835404028352916020019161022b565b820191906000526020600020905b81548152906001019060200180831161020e57829003601f168201915b5050505050908060020180546102409061156b565b80601f016020809104026020016040519081016040528092919081815260200182805461026c9061156b565b80156102b95780601f1061028e576101008083540402835291602001916102b9565b820191906000526020600020905b81548152906001019060200180831161029c57829003601f168201915b5050505050908060030180546102ce9061156b565b80601f01602080910402602001604051908101604052809291908181526020018280546102fa9061156b565b80156103475780601f1061031c57610100808354040283529160200191610347565b820191906000526020600020905b81548152906001019060200180831161032a57829003601f168201915b50505050509080600401805461035c9061156b565b80601f01602080910402602001604051908101604052809291908181526020018280546103889061156b565b80156103d55780601f106103aa576101008083540402835291602001916103d5565b820191906000526020600020905b8154815290600101906020018083116103b857829003601f168201915b5050505050908060050180546103ea9061156b565b80601f01602080910402602001604051908101604052809291908181526020018280546104169061156b565b80156104635780601f1061043857610100808354040283529160200191610463565b820191906000526020600020905b81548152906001019060200180831161044657829003601f168201915b5050505050908060060154905087565b60606001805480602002602001604051908101604052809291908181526020016000905b8282101561083f57838290600052602060002090600702016040518060e00160405290816000820180546104ca9061156b565b80601f01602080910402602001604051908101604052809291908181526020018280546104f69061156b565b80156105435780601f1061051857610100808354040283529160200191610543565b820191906000526020600020905b81548152906001019060200180831161052657829003601f168201915b5050505050815260200160018201805461055c9061156b565b80601f01602080910402602001604051908101604052809291908181526020018280546105889061156b565b80156105d55780601f106105aa576101008083540402835291602001916105d5565b820191906000526020600020905b8154815290600101906020018083116105b857829003601f168201915b505050505081526020016002820180546105ee9061156b565b80601f016020809104026020016040519081016040528092919081815260200182805461061a9061156b565b80156106675780601f1061063c57610100808354040283529160200191610667565b820191906000526020600020905b81548152906001019060200180831161064a57829003601f168201915b505050505081526020016003820180546106809061156b565b80601f01602080910402602001604051908101604052809291908181526020018280546106ac9061156b565b80156106f95780601f106106ce576101008083540402835291602001916106f9565b820191906000526020600020905b8154815290600101906020018083116106dc57829003601f168201915b505050505081526020016004820180546107129061156b565b80601f016020809104026020016040519081016040528092919081815260200182805461073e9061156b565b801561078b5780601f106107605761010080835404028352916020019161078b565b820191906000526020600020905b81548152906001019060200180831161076e57829003601f168201915b505050505081526020016005820180546107a49061156b565b80601f01602080910402602001604051908101604052809291908181526020018280546107d09061156b565b801561081d5780601f106107f25761010080835404028352916020019161081d565b820191906000526020600020905b81548152906001019060200180831161080057829003601f168201915b5050505050815260200160068201548152505081526020019060010190610497565b50505050905090565b606060005b6001805490508110156109bc578260405160200161086b91906115d8565b6040516020818303038152906040528051906020012060018281548110610895576108946115ef565b5b90600052602060002090600702016005016040516020016108b691906116b6565b60405160208183030381529060405280519060200120036109a9576002600182815481106108e7576108e66115ef565b5b9060005260206000209060070201908060018154018082558091505060019003906000526020600020906007020160009091909190915060008201816000019081610932919061187a565b5060018201816001019081610947919061187a565b506002820181600201908161095c919061187a565b5060038201816003019081610971919061187a565b5060048201816004019081610986919061187a565b506005820181600501908161099b919061187a565b506006820154816006015550505b80806109b490611991565b91505061084d565b506002805480602002602001604051908101604052809291908181526020016000905b82821015610d8757838290600052602060002090600702016040518060e0016040529081600082018054610a129061156b565b80601f0160208091040260200160405190810160405280929190818152602001828054610a3e9061156b565b8015610a8b5780601f10610a6057610100808354040283529160200191610a8b565b820191906000526020600020905b815481529060010190602001808311610a6e57829003601f168201915b50505050508152602001600182018054610aa49061156b565b80601f0160208091040260200160405190810160405280929190818152602001828054610ad09061156b565b8015610b1d5780601f10610af257610100808354040283529160200191610b1d565b820191906000526020600020905b815481529060010190602001808311610b0057829003601f168201915b50505050508152602001600282018054610b369061156b565b80601f0160208091040260200160405190810160405280929190818152602001828054610b629061156b565b8015610baf5780601f10610b8457610100808354040283529160200191610baf565b820191906000526020600020905b815481529060010190602001808311610b9257829003601f168201915b50505050508152602001600382018054610bc89061156b565b80601f0160208091040260200160405190810160405280929190818152602001828054610bf49061156b565b8015610c415780601f10610c1657610100808354040283529160200191610c41565b820191906000526020600020905b815481529060010190602001808311610c2457829003601f168201915b50505050508152602001600482018054610c5a9061156b565b80601f0160208091040260200160405190810160405280929190818152602001828054610c869061156b565b8015610cd35780601f10610ca857610100808354040283529160200191610cd3565b820191906000526020600020905b815481529060010190602001808311610cb657829003601f168201915b50505050508152602001600582018054610cec9061156b565b80601f0160208091040260200160405190810160405280929190818152602001828054610d189061156b565b8015610d655780601f10610d3a57610100808354040283529160200191610d65565b820191906000526020600020905b815481529060010190602001808311610d4857829003601f168201915b50505050508152602001600682015481525050815260200190600101906109df565b505050509050919050565b60008060006101f48152602001908152602001600020905086816000019081610dbb91906119d9565b5082816002019081610dcd91906119d9565b5085816001019081610ddf91906119d9565b5083816003019081610df191906119d9565b5084816004019081610e0391906119d9565b5081816005019081610e1591906119d9565b50448160060181905550600181908060018154018082558091505060019003906000526020600020906007020160009091909190915060008201816000019081610e5f919061187a565b5060018201816001019081610e74919061187a565b5060028201816002019081610e89919061187a565b5060038201816003019081610e9e919061187a565b5060048201816004019081610eb3919061187a565b5060058201816005019081610ec8919061187a565b5060068201548160060155505050505050505050565b6000604051905090565b600080fd5b600080fd5b6000819050919050565b610f0581610ef2565b8114610f1057600080fd5b50565b600081359050610f2281610efc565b92915050565b600060208284031215610f3e57610f3d610ee8565b5b6000610f4c84828501610f13565b91505092915050565b600081519050919050565b600082825260208201905092915050565b60005b83811015610f8f578082015181840152602081019050610f74565b60008484015250505050565b6000601f19601f8301169050919050565b6000610fb782610f55565b610fc18185610f60565b9350610fd1818560208601610f71565b610fda81610f9b565b840191505092915050565b610fee81610ef2565b82525050565b600060e082019050818103600083015261100e818a610fac565b905081810360208301526110228189610fac565b905081810360408301526110368188610fac565b9050818103606083015261104a8187610fac565b9050818103608083015261105e8186610fac565b905081810360a08301526110728185610fac565b905061108160c0830184610fe5565b98975050505050505050565b600081519050919050565b600082825260208201905092915050565b6000819050602082019050919050565b600082825260208201905092915050565b60006110d582610f55565b6110df81856110b9565b93506110ef818560208601610f71565b6110f881610f9b565b840191505092915050565b61110c81610ef2565b82525050565b600060e083016000830151848203600086015261112f82826110ca565b9150506020830151848203602086015261114982826110ca565b9150506040830151848203604086015261116382826110ca565b9150506060830151848203606086015261117d82826110ca565b9150506080830151848203608086015261119782826110ca565b91505060a083015184820360a08601526111b182826110ca565b91505060c08301516111c660c0860182611103565b508091505092915050565b60006111dd8383611112565b905092915050565b6000602082019050919050565b60006111fd8261108d565b6112078185611098565b935083602082028501611219856110a9565b8060005b85811015611255578484038952815161123685826111d1565b9450611241836111e5565b925060208a0199505060018101905061121d565b50829750879550505050505092915050565b6000602082019050818103600083015261128181846111f2565b905092915050565b600080fd5b600080fd5b7f4e487b7100000000000000000000000000000000000000000000000000000000600052604160045260246000fd5b6112cb82610f9b565b810181811067ffffffffffffffff821117156112ea576112e9611293565b5b80604052505050565b60006112fd610ede565b905061130982826112c2565b919050565b600067ffffffffffffffff82111561132957611328611293565b5b61133282610f9b565b9050602081019050919050565b82818337600083830152505050565b600061136161135c8461130e565b6112f3565b90508281526020810184848401111561137d5761137c61128e565b5b61138884828561133f565b509392505050565b600082601f8301126113a5576113a4611289565b5b81356113b584826020860161134e565b91505092915050565b6000602082840312156113d4576113d3610ee8565b5b600082013567ffffffffffffffff8111156113f2576113f1610eed565b5b6113fe84828501611390565b91505092915050565b60008060008060008060c0878903121561142457611423610ee8565b5b600087013567ffffffffffffffff81111561144257611441610eed565b5b61144e89828a01611390565b965050602087013567ffffffffffffffff81111561146f5761146e610eed565b5b61147b89828a01611390565b955050604087013567ffffffffffffffff81111561149c5761149b610eed565b5b6114a889828a01611390565b945050606087013567ffffffffffffffff8111156114c9576114c8610eed565b5b6114d589828a01611390565b935050608087013567ffffffffffffffff8111156114f6576114f5610eed565b5b61150289828a01611390565b92505060a087013567ffffffffffffffff81111561152357611522610eed565b5b61152f89828a01611390565b9150509295509295509295565b7f4e487b7100000000000000000000000000000000000000000000000000000000600052602260045260246000fd5b6000600282049050600182168061158357607f821691505b6020821081036115965761159561153c565b5b50919050565b600081905092915050565b60006115b282610f55565b6115bc818561159c565b93506115cc818560208601610f71565b80840191505092915050565b60006115e482846115a7565b915081905092915050565b7f4e487b7100000000000000000000000000000000000000000000000000000000600052603260045260246000fd5b60008190508160005260206000209050919050565b600081546116408161156b565b61164a818661159c565b94506001821660008114611665576001811461167a576116ad565b60ff19831686528115158202860193506116ad565b6116838561161e565b60005b838110156116a557815481890152600182019150602081019050611686565b838801955050505b50505092915050565b60006116c28284611633565b915081905092915050565b6000815490506116dc8161156b565b9050919050565b60006020601f8301049050919050565b600082821b905092915050565b6000600883026117307fffffffffffffffffffffffffffffffffffffffffffffffffffffffffffffffff826116f3565b61173a86836116f3565b95508019841693508086168417925050509392505050565b6000819050919050565b600061177761177261176d84610ef2565b611752565b610ef2565b9050919050565b6000819050919050565b6117918361175c565b6117a561179d8261177e565b848454611700565b825550505050565b600090565b6117ba6117ad565b6117c5818484611788565b505050565b5b818110156117e9576117de6000826117b2565b6001810190506117cb565b5050565b601f82111561182e576117ff8161161e565b611808846116e3565b81016020851015611817578190505b61182b611823856116e3565b8301826117ca565b50505b505050565b600082821c905092915050565b600061185160001984600802611833565b1980831691505092915050565b600061186a8383611840565b9150826002028217905092915050565b818103611888575050611960565b611891826116cd565b67ffffffffffffffff8111156118aa576118a9611293565b5b6118b4825461156b565b6118bf8282856117ed565b6000601f8311600181146118ee57600084156118dc578287015490505b6118e6858261185e565b865550611959565b601f1984166118fc8761161e565b96506119078661161e565b60005b8281101561192f5784890154825560018201915060018501945060208101905061190a565b8683101561194c5784890154611948601f891682611840565b8355505b6001600288020188555050505b5050505050505b565b7f4e487b7100000000000000000000000000000000000000000000000000000000600052601160045260246000fd5b600061199c82610ef2565b91507fffffffffffffffffffffffffffffffffffffffffffffffffffffffffffffffff82036119ce576119cd611962565b5b600182019050919050565b6119e282610f55565b67ffffffffffffffff8111156119fb576119fa611293565b5b611a05825461156b565b611a108282856117ed565b600060209050601f831160018114611a435760008415611a31578287015190505b611a3b858261185e565b865550611aa3565b601f198416611a518661161e565b60005b82811015611a7957848901518255600182019150602085019450602081019050611a54565b86831015611a965784890151611a92601f891682611840565b8355505b6001600288020188555050505b50505050505056fea2646970667358221220507e3e2a77cb46acc2cce83b530427f75a299d814ae3e651aec1a00d2862fee964736f6c63430008130033",
  "immutableReferences": {},
  "source": "// SimpleStorage.sol\npragma solidity >=0.4.0 <0.9.0;\n\n\ncontract SimpleStorage {\n    struct Funds {\n        string name;\n        string amount;\n        string message;\n        string date;\n        string mode_of_payment;\n        string userId;\n        uint256 transactionId;\n    }\n\n    mapping(uint256 => Funds) funds;\n    Funds[] public fundArray;\n    Funds[] userFunds;\n\n    uint storedData;\n\n    function registerFunds(\n        string memory name,\n        string memory amount,\n        string memory mode_of_payment,\n        string memory date,\n        string memory message,\n        string memory userId\n    ) public {\n        Funds storage newFund = funds[500];\n        newFund.name = name;\n        newFund.message = message;\n        newFund.amount = amount;\n        newFund.date = date;\n        newFund.mode_of_payment = mode_of_payment;\n        newFund.userId = userId;\n        newFund.transactionId = block.prevrandao;\n        fundArray.push(newFund);\n    }\n\n    function getMyFunds(string memory userId) public returns (Funds[] memory) {\n        for (uint i = 0; i < fundArray.length; i++) {\n            if (\n                keccak256(abi.encodePacked(fundArray[i].userId)) ==\n                keccak256(abi.encodePacked(userId))\n            ) {\n                userFunds.push(fundArray[i]);\n            }\n        }\n        return userFunds;\n    }\n\n    function getAll() public view returns (Funds[] memory) {\n        return fundArray;\n    }\n\n   \n}\n",
  "sourcePath": "C:\\Users\\yash\\Downloads\\fund-management-system-master\\fund-management-system-master\\blockchain\\contracts\\SimpleStorage.sol",
  "compiler": {
    "name": "solc",
    "version": "0.8.19+commit.7dd6d404.Emscripten.clang"
  },
  "schemaVersion": "3.4.13",
  "updatedAt": "2023-04-19T13:12:27.837Z",
  "networkType": "ethereum",
  "devdoc": {
    "kind": "dev",
    "methods": {},
    "version": 1
  },
  "userdoc": {
    "kind": "user",
    "methods": {},
    "version": 1
  },
  "db": {
    "callBytecode": {
      "id": "0x3f385614ce3465f4bee406b924507b5f77b64b1672b299c1d1732c5c3c4fc4c2"
    },
    "createBytecode": {
      "id": "0x1af892bc873d8c498aa2615ade69da4bebe0b5e9f69a458e7650c7f84e10dd73"
    },
    "contract": {
      "id": "0x17b21d2108fbc6bdf8a0853c5ce7ddb89dbfc88930dc22da2947f39dd9f885de"
    }
  }
}